{
  "contractName": "User",
  "abi": [
    {
      "inputs": [],
      "payable": false,
      "stateMutability": "nonpayable",
      "type": "constructor"
    },
    {
      "anonymous": false,
      "inputs": [
        {
          "indexed": false,
          "name": "userAddress",
          "type": "address"
        }
      ],
      "name": "LogUserCreated",
      "type": "event"
    },
    {
      "constant": true,
      "inputs": [
        {
          "name": "userAddress",
          "type": "address"
        }
      ],
      "name": "hasUser",
      "outputs": [
        {
          "name": "hasIndeed",
          "type": "bool"
        }
      ],
      "payable": false,
      "stateMutability": "view",
      "type": "function"
    },
    {
      "constant": true,
      "inputs": [
        {
          "name": "username",
          "type": "bytes16"
        }
      ],
      "name": "usernameTaken",
      "outputs": [
        {
          "name": "takenIndeed",
          "type": "bool"
        }
      ],
      "payable": false,
      "stateMutability": "view",
      "type": "function"
    },
    {
      "constant": false,
      "inputs": [
        {
          "name": "username",
          "type": "bytes16"
        },
        {
          "name": "ipfsHash",
          "type": "bytes"
        }
      ],
      "name": "createUser",
      "outputs": [
        {
          "name": "success",
          "type": "bool"
        }
      ],
      "payable": false,
      "stateMutability": "nonpayable",
      "type": "function"
    },
    {
      "constant": true,
      "inputs": [],
      "name": "getUserCount",
      "outputs": [
        {
          "name": "count",
          "type": "uint256"
        }
      ],
      "payable": false,
      "stateMutability": "view",
      "type": "function"
    },
    {
      "constant": true,
      "inputs": [
        {
          "name": "index",
          "type": "uint256"
        }
      ],
      "name": "getAddressByIndex",
      "outputs": [
        {
          "name": "userAddress",
          "type": "address"
        }
      ],
      "payable": false,
      "stateMutability": "view",
      "type": "function"
    },
    {
      "constant": true,
      "inputs": [
        {
          "name": "index",
          "type": "uint256"
        }
      ],
      "name": "getUsernameByIndex",
      "outputs": [
        {
          "name": "username",
          "type": "bytes16"
        }
      ],
      "payable": false,
      "stateMutability": "view",
      "type": "function"
    },
    {
      "constant": true,
      "inputs": [
        {
          "name": "index",
          "type": "uint256"
        }
      ],
      "name": "getIpfsHashByIndex",
      "outputs": [
        {
          "name": "ipfsHash",
          "type": "bytes"
        }
      ],
      "payable": false,
      "stateMutability": "view",
      "type": "function"
    }
  ],
  "bytecode": "0x608060405234801561001057600080fd5b5060023390806001815401808255809150509060018203906000526020600020016000909192909190916101000a81548173ffffffffffffffffffffffffffffffffffffffff021916908373ffffffffffffffffffffffffffffffffffffffff16021790555050600380600181540180825580915050906001820390600052602060002090600291828204019190066010027f73656c6600000000000000000000000000000000000000000000000000000000909190916101000a8154816fffffffffffffffffffffffffffffffff0219169083700100000000000000000000000000000000900402179055505060048060018154018082558091505090600182039060005260206000200160006040805190810160405280600d81526020017f6e6f742d617661696c61626c65000000000000000000000000000000000000008152509091909150908051906020019061016c929190610173565b5050610218565b828054600181600116156101000203166002900490600052602060002090601f016020900481019282601f106101b457805160ff19168380011785556101e2565b828001600101855582156101e2579182015b828111156101e15782518255916020019190600101906101c6565b5b5090506101ef91906101f3565b5090565b61021591905b808211156102115760008160009055506001016101f9565b5090565b90565b610954806102276000396000f300608060405260043610610083576000357c0100000000000000000000000000000000000000000000000000000000900463ffffffff1680630bac9fe71461008857806316b7addf146100ef57806329f78d8814610147578063402f707e146101ed578063a6c4ec0e1461028b578063b5cb15f7146102e6578063ce10cf8814610311575b600080fd5b34801561009457600080fd5b506100b36004803603810190808035906020019092919050505061037e565b60405180826fffffffffffffffffffffffffffffffff19166fffffffffffffffffffffffffffffffff1916815260200191505060405180910390f35b3480156100fb57600080fd5b5061012d60048036038101908080356fffffffffffffffffffffffffffffffff191690602001909291905050506103dc565b604051808215151515815260200191505060405180910390f35b34801561015357600080fd5b506101726004803603810190808035906020019092919050505061045e565b6040518080602001828103825283818151815260200191508051906020019080838360005b838110156101b2578082015181840152602081019050610197565b50505050905090810190601f1680156101df5780820380516001836020036101000a031916815260200191505b509250505060405180910390f35b3480156101f957600080fd5b5061027160048036038101908080356fffffffffffffffffffffffffffffffff19169060200190929190803590602001908201803590602001908080601f016020809104026020016040519081016040528093929190818152602001838380828437820191505050505050919291929050505061052c565b604051808215151515815260200191505060405180910390f35b34801561029757600080fd5b506102cc600480360381019080803573ffffffffffffffffffffffffffffffffffffffff169060200190929190505050610766565b604051808215151515815260200191505060405180910390f35b3480156102f257600080fd5b506102fb610820565b6040518082815260200191505060405180910390f35b34801561031d57600080fd5b5061033c6004803603810190808035906020019092919050505061082d565b604051808273ffffffffffffffffffffffffffffffffffffffff1673ffffffffffffffffffffffffffffffffffffffff16815260200191505060405180910390f35b60006002805490508210151561039357600080fd5b6003828154811015156103a257fe5b90600052602060002090600291828204019190066010029054906101000a9004700100000000000000000000000000000000029050919050565b60008060016000846fffffffffffffffffffffffffffffffff19166fffffffffffffffffffffffffffffffff1916815260200190815260200160002054118061045757507f73656c6600000000000000000000000000000000000000000000000000000000826fffffffffffffffffffffffffffffffff1916145b9050919050565b60606002805490508210151561047357600080fd5b60048281548110151561048257fe5b906000526020600020018054600181600116156101000203166002900480601f0160208091040260200160405190810160405280929190818152602001828054600181600116156101000203166002900480156105205780601f106104f557610100808354040283529160200191610520565b820191906000526020600020905b81548152906001019060200180831161050357829003601f168201915b50505050509050919050565b600061053733610766565b15151561054357600080fd5b61054c836103dc565b15151561055857600080fd5b60023390806001815401808255809150509060018203906000526020600020016000909192909190916101000a81548173ffffffffffffffffffffffffffffffffffffffff021916908373ffffffffffffffffffffffffffffffffffffffff16021790555050600383908060018154018082558091505090600182039060005260206000209060029182820401919006601002909192909190916101000a8154816fffffffffffffffffffffffffffffffff021916908370010000000000000000000000000000000090040217905550506004829080600181540180825580915050906001820390600052602060002001600090919290919091509080519060200190610666929190610883565b50506001600280549050036000803373ffffffffffffffffffffffffffffffffffffffff1673ffffffffffffffffffffffffffffffffffffffff1681526020019081526020016000208190555060016002805490500360016000856fffffffffffffffffffffffffffffffff19166fffffffffffffffffffffffffffffffff19168152602001908152602001600020819055507ff7ef523e9b687b0c00c8fe3b0d4f06f46f0b5d3335283ee5c111c9144a52589633604051808273ffffffffffffffffffffffffffffffffffffffff1673ffffffffffffffffffffffffffffffffffffffff16815260200191505060405180910390a16001905092915050565b6000806000808473ffffffffffffffffffffffffffffffffffffffff1673ffffffffffffffffffffffffffffffffffffffff1681526020019081526020016000205411806108195750600260008154811015156107bf57fe5b9060005260206000200160009054906101000a900473ffffffffffffffffffffffffffffffffffffffff1673ffffffffffffffffffffffffffffffffffffffff168273ffffffffffffffffffffffffffffffffffffffff16145b9050919050565b6000600280549050905090565b60006002805490508210151561084257600080fd5b60028281548110151561085157fe5b9060005260206000200160009054906101000a900473ffffffffffffffffffffffffffffffffffffffff169050919050565b828054600181600116156101000203166002900490600052602060002090601f016020900481019282601f106108c457805160ff19168380011785556108f2565b828001600101855582156108f2579182015b828111156108f15782518255916020019190600101906108d6565b5b5090506108ff9190610903565b5090565b61092591905b80821115610921576000816000905550600101610909565b5090565b905600a165627a7a72305820be84167759a62bd1f352c65b6ef079da5990664088c60dc09b43e9deb2fc94fb0029",
  "source": "pragma solidity ^ 0.4 .19;\ncontract User {\n\n  mapping(address => uint256) private addressToIndex;\n  mapping(bytes16 => uint256) private usernameToIndex;\n  address[] private addresses;\n  bytes16[] private usernames;\n  bytes[] private ipfsHashes;\n\n  event LogUserCreated(address userAddress);\n\n  constructor() public {\n    addresses.push(msg.sender);\n    /* \n      push a username of self for the user's address who inits the Contract\n      while defaulting that user's ipfsHash to not-available\n    */\n    usernames.push('self');\n    ipfsHashes.push('not-available');\n  }\n\n  function hasUser(address userAddress) public view returns(bool hasIndeed) {\n    return (addressToIndex[userAddress] > 0 || userAddress == addresses[0]);\n  }\n\n  function usernameTaken(bytes16 username) public view returns(bool takenIndeed) {\n    return (usernameToIndex[username] > 0 || username == 'self');\n  }\n\n  function createUser(bytes16 username, bytes ipfsHash) public returns(bool success) {\n    require(!hasUser(msg.sender));\n    require(!usernameTaken(username));\n    addresses.push(msg.sender);\n    usernames.push(username);\n    ipfsHashes.push(ipfsHash);\n    addressToIndex[msg.sender] = addresses.length - 1;\n    usernameToIndex[username] = addresses.length - 1;\n\n    emit LogUserCreated(msg.sender);\n\n    return true;\n  }\n\n  function getUserCount() public view returns(uint256 count) {\n    return addresses.length;\n  }\n\n  function getAddressByIndex(uint256 index) public view returns(address userAddress) {\n    require(index < addresses.length);\n    return addresses[index];\n  }\n\n  function getUsernameByIndex(uint256 index) public view returns(bytes16 username) {\n    require(index < addresses.length);\n    return usernames[index];\n  }\n\n  function getIpfsHashByIndex(uint256 index) public view returns(bytes ipfsHash) {\n    require(index < addresses.length);\n    return ipfsHashes[index];\n  }\n}\n",
  "sourcePath": "/Users/serknight/code/eth/face_block/contracts/User.sol",
  "compiler": {
    "name": "solc",
    "version": "0.4.24+commit.e67f0147.Emscripten.clang"
  },
  "schemaVersion": "2.0.1",
  "updatedAt": "2018-08-25T04:49:26.516Z"
}