{
  "contractName": "User",
  "abi": [
    {
      "inputs": [],
      "payable": false,
      "stateMutability": "nonpayable",
      "type": "constructor"
    },
    {
      "anonymous": false,
      "inputs": [
        {
          "indexed": false,
          "name": "userAddress",
          "type": "address"
        }
      ],
      "name": "LogUserCreated",
      "type": "event"
    },
    {
      "constant": true,
      "inputs": [
        {
          "name": "userAddress",
          "type": "address"
        }
      ],
      "name": "hasUser",
      "outputs": [
        {
          "name": "hasIndeed",
          "type": "bool"
        }
      ],
      "payable": false,
      "stateMutability": "view",
      "type": "function"
    },
    {
      "constant": true,
      "inputs": [
        {
          "name": "username",
          "type": "bytes16"
        }
      ],
      "name": "usernameTaken",
      "outputs": [
        {
          "name": "takenIndeed",
          "type": "bool"
        }
      ],
      "payable": false,
      "stateMutability": "view",
      "type": "function"
    },
    {
      "constant": false,
      "inputs": [
        {
          "name": "username",
          "type": "bytes16"
        },
        {
          "name": "ipfsHash",
          "type": "bytes16"
        }
      ],
      "name": "createUser",
      "outputs": [
        {
          "name": "success",
          "type": "bool"
        }
      ],
      "payable": false,
      "stateMutability": "nonpayable",
      "type": "function"
    },
    {
      "constant": true,
      "inputs": [],
      "name": "getUserCount",
      "outputs": [
        {
          "name": "count",
          "type": "uint256"
        }
      ],
      "payable": false,
      "stateMutability": "view",
      "type": "function"
    },
    {
      "constant": true,
      "inputs": [
        {
          "name": "index",
          "type": "uint256"
        }
      ],
      "name": "getAddressByIndex",
      "outputs": [
        {
          "name": "userAddress",
          "type": "address"
        }
      ],
      "payable": false,
      "stateMutability": "view",
      "type": "function"
    },
    {
      "constant": true,
      "inputs": [
        {
          "name": "index",
          "type": "uint256"
        }
      ],
      "name": "getUsernameByIndex",
      "outputs": [
        {
          "name": "username",
          "type": "bytes16"
        }
      ],
      "payable": false,
      "stateMutability": "view",
      "type": "function"
    },
    {
      "constant": true,
      "inputs": [
        {
          "name": "index",
          "type": "uint256"
        }
      ],
      "name": "getIpfsHashByIndex",
      "outputs": [
        {
          "name": "ipfsHash",
          "type": "bytes16"
        }
      ],
      "payable": false,
      "stateMutability": "view",
      "type": "function"
    }
  ],
  "bytecode": "0x608060405234801561001057600080fd5b5060023390806001815401808255809150509060018203906000526020600020016000909192909190916101000a81548173ffffffffffffffffffffffffffffffffffffffff021916908373ffffffffffffffffffffffffffffffffffffffff16021790555050600380600181540180825580915050906001820390600052602060002090600291828204019190066010027f73656c6600000000000000000000000000000000000000000000000000000000909190916101000a8154816fffffffffffffffffffffffffffffffff02191690837001000000000000000000000000000000009004021790555050600480600181540180825580915050906001820390600052602060002090600291828204019190066010027f6e6f742d617661696c61626c6500000000000000000000000000000000000000909190916101000a8154816fffffffffffffffffffffffffffffffff02191690837001000000000000000000000000000000009004021790555050610829806101946000396000f300608060405260043610610083576000357c0100000000000000000000000000000000000000000000000000000000900463ffffffff1680630bac9fe71461008857806316b7addf146100ef57806329f78d8814610147578063a6c4ec0e146101ae578063b5cb15f714610209578063ce10cf8814610234578063fe98b243146102a1575b600080fd5b34801561009457600080fd5b506100b360048036038101908080359060200190929190505050610316565b60405180826fffffffffffffffffffffffffffffffff19166fffffffffffffffffffffffffffffffff1916815260200191505060405180910390f35b3480156100fb57600080fd5b5061012d60048036038101908080356fffffffffffffffffffffffffffffffff19169060200190929190505050610374565b604051808215151515815260200191505060405180910390f35b34801561015357600080fd5b50610172600480360381019080803590602001909291905050506103f6565b60405180826fffffffffffffffffffffffffffffffff19166fffffffffffffffffffffffffffffffff1916815260200191505060405180910390f35b3480156101ba57600080fd5b506101ef600480360381019080803573ffffffffffffffffffffffffffffffffffffffff169060200190929190505050610454565b604051808215151515815260200191505060405180910390f35b34801561021557600080fd5b5061021e61050e565b6040518082815260200191505060405180910390f35b34801561024057600080fd5b5061025f6004803603810190808035906020019092919050505061051b565b604051808273ffffffffffffffffffffffffffffffffffffffff1673ffffffffffffffffffffffffffffffffffffffff16815260200191505060405180910390f35b3480156102ad57600080fd5b506102fc60048036038101908080356fffffffffffffffffffffffffffffffff1916906020019092919080356fffffffffffffffffffffffffffffffff19169060200190929190505050610571565b604051808215151515815260200191505060405180910390f35b60006002805490508210151561032b57600080fd5b60038281548110151561033a57fe5b90600052602060002090600291828204019190066010029054906101000a9004700100000000000000000000000000000000029050919050565b60008060016000846fffffffffffffffffffffffffffffffff19166fffffffffffffffffffffffffffffffff191681526020019081526020016000205411806103ef57507f73656c6600000000000000000000000000000000000000000000000000000000826fffffffffffffffffffffffffffffffff1916145b9050919050565b60006002805490508210151561040b57600080fd5b60048281548110151561041a57fe5b90600052602060002090600291828204019190066010029054906101000a9004700100000000000000000000000000000000029050919050565b6000806000808473ffffffffffffffffffffffffffffffffffffffff1673ffffffffffffffffffffffffffffffffffffffff1681526020019081526020016000205411806105075750600260008154811015156104ad57fe5b9060005260206000200160009054906101000a900473ffffffffffffffffffffffffffffffffffffffff1673ffffffffffffffffffffffffffffffffffffffff168273ffffffffffffffffffffffffffffffffffffffff16145b9050919050565b6000600280549050905090565b60006002805490508210151561053057600080fd5b60028281548110151561053f57fe5b9060005260206000200160009054906101000a900473ffffffffffffffffffffffffffffffffffffffff169050919050565b600061057c33610454565b15151561058857600080fd5b61059183610374565b15151561059d57600080fd5b6105a6826107ec565b1515156105b257600080fd5b60023390806001815401808255809150509060018203906000526020600020016000909192909190916101000a81548173ffffffffffffffffffffffffffffffffffffffff021916908373ffffffffffffffffffffffffffffffffffffffff16021790555050600383908060018154018082558091505090600182039060005260206000209060029182820401919006601002909192909190916101000a8154816fffffffffffffffffffffffffffffffff02191690837001000000000000000000000000000000009004021790555050600482908060018154018082558091505090600182039060005260206000209060029182820401919006601002909192909190916101000a8154816fffffffffffffffffffffffffffffffff021916908370010000000000000000000000000000000090040217905550506001600280549050036000803373ffffffffffffffffffffffffffffffffffffffff1673ffffffffffffffffffffffffffffffffffffffff1681526020019081526020016000208190555060016002805490500360016000856fffffffffffffffffffffffffffffffff19166fffffffffffffffffffffffffffffffff19168152602001908152602001600020819055507ff7ef523e9b687b0c00c8fe3b0d4f06f46f0b5d3335283ee5c111c9144a52589633604051808273ffffffffffffffffffffffffffffffffffffffff1673ffffffffffffffffffffffffffffffffffffffff16815260200191505060405180910390a16001905092915050565b60006028601060ff161190509190505600a165627a7a7230582058dadb55551d9e089860c4f6162b5b9091ac34139d3a29d824e6b595c07b17770029",
  "source": "pragma solidity ^ 0.4 .19;\ncontract User {\n\n  mapping(address => uint) private addressToIndex;\n  mapping(bytes16 => uint) private usernameToIndex;\n  address[] private addresses;\n  bytes16[] private usernames;\n  bytes16[] private ipfsHashes;\n\n  event LogUserCreated(address userAddress);\n\n  constructor() public {\n    // mappings are virtually initialized to zero values so we need to \"waste\" the first element of the arrays\n    // instead of wasting it we use it to create a user for the contract itself\n    addresses.push(msg.sender);\n    usernames.push('self');\n    ipfsHashes.push('not-available');\n  }\n\n  function hasUser(address userAddress) public view returns(bool hasIndeed) {\n    return (addressToIndex[userAddress] > 0 || userAddress == addresses[0]);\n  }\n\n  function usernameTaken(bytes16 username) public view returns(bool takenIndeed) {\n    return (usernameToIndex[username] > 0 || username == 'self');\n  }\n\n  function ipfsHashPresent(bytes16 ipfsHash) internal pure returns(bool hashPresent) {\n    return (ipfsHash.length > 40);\n  }\n\n  function createUser(bytes16 username, bytes16 ipfsHash) public returns(bool success) {\n    require(!hasUser(msg.sender));\n    require(!usernameTaken(username));\n    require(!ipfsHashPresent(ipfsHash));\n    addresses.push(msg.sender);\n    usernames.push(username);\n    ipfsHashes.push(ipfsHash);\n    addressToIndex[msg.sender] = addresses.length - 1;\n    usernameToIndex[username] = addresses.length - 1;\n\n    emit LogUserCreated(msg.sender);\n\n    return true;\n  }\n\n  function getUserCount() public view returns(uint count) {\n    return addresses.length;\n  }\n\n  function getAddressByIndex(uint index) public view returns(address userAddress) {\n    require(index < addresses.length);\n    return addresses[index];\n  }\n\n  function getUsernameByIndex(uint index) public view returns(bytes16 username) {\n    require(index < addresses.length);\n    return usernames[index];\n  }\n\n  function getIpfsHashByIndex(uint index) public view returns(bytes16 ipfsHash) {\n    require(index < addresses.length);\n    return ipfsHashes[index];\n  }\n}\n",
  "sourcePath": "/Users/serknight/code/eth/face_block/contracts/User.sol",
  "compiler": {
    "name": "solc",
    "version": "0.4.24+commit.e67f0147.Emscripten.clang"
  },
  "schemaVersion": "2.0.1",
  "updatedAt": "2018-08-25T02:45:10.428Z"
}